:03000000020714E0
:0C071400787FE4F6D8FD75812502060907
:06073100000000000000C2
:080577008B1D8A1E891F8D20D7
:10057F007521FFE4FFEFC395205035AB1DAA1EA9CF
:10058F001F8F8275830012011262217E08EED394B1
:10059F0000748094804016E52130E70825E064312F
:1005AF00F5218006E52125E0F5211E80E00F80C5AD
:0205BF00AF216A
:0105C1002217
:0906F5007F0A1206FED2A07F323A
:0706FE00AE071FEE70FA22A7
:05073700D2A1D2A022B6
:1006B000D2A1D2A07F0A1206FEC2A17F141206FEAA
:0706C000C2A07F140206FE38
:1006C700C2A1C2A07F0A1206FED2A07F0A1206FEAE
:0706D700D2A17F0A0206FE1A
:050527001206B07F8800
:02052C00AD0719
:10052E00C2A0E4FCECC3940874809480501BED30A0
:10053E00E704D2A18002C2A11206F5C2A07F0A1260
:10054E0006FEED25E0FD0C80DBD2A1D2A07F1412B9
:10055E0006FE30A10AC2A07F321206FE7F0122C221
:08056E00A07F321206FE7F009F
:010576002262
:0205C200AD0783
:1005C400E4FBC2A0D2A1FCECC394087480948050D4
:1005D40020EB25E0FBD2A07F1E1206FE30A10543CE
:1005E400030180035303FEC2A07F0A1206FE0C809F
:1005F400D6ED24FF92A11206F5C2A0D2A17F01126A
:0406040006FEAF033C
:0106080022CF
:0406DE008E1D8F1EC0
:1006E200E51DFF12052CAB07AF1E12052CEF4203CE
:0206F200AF0354
:0106F40022E3
:100693001207371205277F417E301206DE1206C786
:0D06A3001205277F307E211206DE0206C7F9
:06041E008B088A09890A1F
:1004240078177C007D007BFF7A0779317E007F0698
:100434001200D31205278F0EEF7008FF7EE012061C
:10044400DE8F0EE50E700A1206B07F8912052C8F1E
:100454000EE50E704DFAEAC3940574809480500E34
:10046400E4FF1205C274172AF8A6070A80E87F0180
:100474001205C274172AF8A6071206C77B007A0071
:1004840079177D02120577EF65196003750E027BFB
:10049400007A00791A7D02120577EF651C600375F6
:1004A4000E02E50E707AE517FEE518FFEE3395E0CF
:1004B4008F128E11F510F50FE51AFEE51BFFEE33D2
:1004C40095E08F168E15F514F513E47FD67E06FDA0
:1004D400FCAB12AA11A910A80F120194E47BFF7AB5
:1004E400FFF9F812021FEF243EFFEE34FEAB08AA18
:1004F40009A90A8FF0120175E47FE87E03FDFCABC5
:1005040016AA15A914A813120194E47BFF7AFFF923
:10051400F812021FAB0BAA0CA90DEE8FF012017595
:02052400AF0E18
:0105260022B2
:07072A00686B686B76760036
:10063E00E4FDFCC3ED9FEC9E5025E4FBEBC394C898
:10064E007480948050030B80F3E4FBEBC3946674C8
:0F065E0080948050030B80F30DBD00010C80D4FD
:01066D00226A
:080306008E088F09AB05AA0463
:10030E007C277D1012013FEF2430F50AAE08AF09AD
:10031E007C277D1012013F7E037FE8CFCDCFCECC60
:10032E00CE12013FEF2430F50BAE08AF097C037DF2
:10033E00E812013F7E007F64CFCDCFCECCCE12012E
:10034E003FEF2430F50CAE08AF097C007D6412013E
:10035E003F7E007F0ACFCDCFCECCCE12013FEF2411
:10036E0030F50D750E2EAE08AF097C007D0A120118
:10037E003FED2430F50F75103A7C277D10AF03AE9C
:10038E000212013FEF2430F5117C277D10AF03AE32
:10039E000212013F7E037FE8CFCDCFCECCCE12012D
:1003AE003FEF243AF5127C037DE8AF03AE02120153
:1003BE003F7E007F64CFCDCFCECCCE12013FEF2457
:1003CE003AF5137C007D64AF03AE0212013F7E004E
:1003DE007F0ACFCDCFCECCCE12013FEF243AF5140B
:1003EE0075152EAE02AF037C007D0A12013FED247F
:1003FE003AF516E4F517D3E517940C7480948050F3
:0F040E000E740A2517F8E6FF120720051780E77E
:01041D0022BC
:100609001206931207057BFF7A07792A12066E757F
:100619000B00750C00750D227B007A0079241204F9
:100629001EAD23AC22AF25AE241203067FD07E0770
:0506390012063E80DA0C
:0F070500759850758920758DFD758BFDD28E22EC
:0A072000C2998F993099FDC2992209
:10066E008B088A09890AAB08AA09A90A1200F9603F
:10067E0013050AE50A7002050914F91200F9FF12B2
:05068E00072080E222BC
:10000300E709F608DFFA8046E709F208DFFA803EDF
:1000130088828C83E709F0A3DFFA8032E309F608CC
:10002300DFFA8078E309F208DFFA807088828C8334
:10003300E309F0A3DFFA806489828A83E0A3F608E8
:10004300DFFA805889828A83E0A3F208DFFA804CC2
:1000530080D280FA80C680D4806980F28033801099
:1000630080A680EA809A80A880DA80E280CA803302
:1000730089828A83ECFAE493A3C8C582C8CCC5837A
:10008300CCF0A3C8C582C8CCC583CCDFE9DEE7804A
:100093000D89828A83E493A3F608DFF9ECFAA9F0C9
:1000A300EDFB2289828A83ECFAE0A3C8C582C8CC1F
:1000B300C583CCF0A3C8C582C8CCC583CCDFEADE38
:1000C300E880DB89828A83E493A3F208DFF980CC9A
:1000D30088F0EF60010E4E60C388F0ED2402B40493
:1000E3000050B9F582EB2402B4040050AF2323453A
:0600F3008223900053730C
:1000F900BB010689828A83E0225002E722BBFE0205
:09010900E32289828A83E4932237
:10011200BB010CE58229F582E5833AF583E02250A2
:1001220006E92582F8E622BBFE06E92582F8E222EC
:0D013200E58229F582E5833AF583E4932206
:10013F00C2D5EC30E709B2D5E4C39DFDE49CFCEEDB
:10014F0030E715B2D5E4C39FFFE49EFE1202B1C3A0
:10015F00E49DFDE49CFC80031202B130D507C3E49B
:06016F009FFFE49EFE224A
:10017500BB010A89828A83F0E5F0A3F0225006F7D5
:0F01850009A7F01922BBFE06F3E5F009F31922D2
:10019400E88FF0A4CC8BF0A42CFCE98EF0A42CFC0A
:1001A4008AF0EDA42CFCEA8EF0A4CDA8F08BF0A488
:1001B4002DCC3825F0FDE98FF0A42CCD35F0FCEBE7
:1001C4008EF0A4FEA9F0EB8FF0A4CFC5F02ECD39AC
:0F01D400FEE43CFCEAA42DCE35F0FDE43CFC2219
:1001E30075F008758200EF2FFFEE33FECD33CDCCD3
:1001F30033CCC58233C5829BED9AEC99E582984056
:100203000CF582EE9BFEED9AFDEC99FC0FD5F0D632
:10021300E4CEFBE4CDFAE4CCF9A88222B800C1B95C
:100223000059BA002DEC8BF084CFCECDFCE5F0CB9A
:10023300F97818EF2FFFEE33FEED33FDEC33FCEBD3
:1002430033FB10D703994004EB99FB0FD8E5E4F98E
:10025300FA227818EF2FFFEE33FEED33FDEC33FC7B
:10026300C933C910D7059BE99A4007EC9BFCE99A6F
:10027300F90FD8E0E4C9FAE4CCFB2275F010EF2FB4
:10028300FFEE33FEED33FDCC33CCC833C810D707B4
:100293009BEC9AE899400AED9BFDEC9AFCE899F8EF
:0E02A3000FD5F0DAE4CDFBE4CCFAE4C8F92282
:1002B100BC000BBE0029EF8DF084FFADF022E4CC31
:1002C100F875F008EF2FFFEE33FEEC33FCEE9DECFA
:1002D100984005FCEE9DFE0FD5F0E9E4CEFD22ED40
:1002E100F8F5F0EE8420D21CFEADF075F008EF2F8A
:1002F100FFED33FD4007985006D5F0F222C398FD7B
:050301000FD5F0EA2217
:00000001FF
